:020000040800F2
:100000008812002095950008F5930008F7930008E2
:10001000F9930008FB930008FD930008000000001E
:10002000000000000000000000000000FF93000836
:1000300001940008000000000394000805940008E3
:1000400015960008199600081D96000821960008CC
:1000500025960008299600082D960008319600087C
:1000600035960008399600083D960008419600082C
:1000700045960008499600084D96000851960008DC
:1000800055960008599600085D960008619600088C
:1000900065960008699600086D960008719600083C
:1000A00075960008799600087D96000881960008EC
:1000B00085960008899600088D960008919600089C
:1000C00095960008999600089D960008A19600084C
:1000D000A59600080D940008A9960008AD960008A2
:1000E000B1960008B5960008B9960008BD960008BC
:1000F000C1960008C5960008C9960008CD9600086C
:10010000D1960008D5960008D9960008DD9600081B
:10011000E1960008E5960008E9960008ED960008CB
:10012000F1960008F5960008F9960008FD9600087B
:1001300040F0200070472DE9F14FB0B09246049195
:100140000DF142013A9A2B9199464A7000200AE03B
:100150001AF8011B0498309A90470028049000F088
:1001600041860D98401C0D909AF8000050B125284A
:10017000EED1002100220791089209910A920B9179
:100180000C9204E00D9800F02FBE41F001011AF826
:10019000010F2028F9D023280CD02B2804D02D289B
:1001A00005D0302809D00BE041F00201EFE741F023
:1001B0000401ECE741F00801E9E741F01001E6E74E
:1001C0002A280FD1D9F8002052F8040BC9F80020D2
:1001D00000280F9003D540420F9041F004010AF12E
:1001E000010A14E00F92DFF8083C0AE00F989842E9
:1001F00005DA00EB800402EB4402303A0F920AF178
:10020000010A9AF80020A2F130000A28EED39AF8E9
:1002100000002E2803D04FF0FF320E9229E01AF88A
:10022000010F2A2809D1D9F8000050F8042BC9F889
:1002300000000E920AF1010A1BE02D280CBF0AF102
:10024000010A002000220E92DFF8A44B0BE040B917
:100250000E9AA24205DA02EB820503EB4503303B1E
:100260000E930AF1010A9AF80030A3F130020A2A2B
:10027000EDD3ADF840100FF67C309AF8001000F086
:10028000FBFE08B11AF8010B8DF842009DF8420000
:10029000682805D19AF8000068280CD1622106E090
:1002A0006C2804BF9AF800006C2804D171218DF8E5
:1002B00042100AF1010A12A806901AF801BBBBF11C
:1002C00025012CD01C3900F09481091F022940F22D
:1002D0009081133900F0B884093900F08A81891EB1
:1002E00000F04D85491E00F0FA84491E022940F2B3
:1002F0008081091F00F0F384491F00F0EF80491E40
:1003000000F0A284491E00F0D780C91E0CD0891EBF
:1003100000F09A84C91E00F0978400F03BBD0123D1
:100320000793252100F033BDD9F8000050F8044BA5
:10033000C9F80000002C059440F0AB802B99487858
:10034000002800F0A1804FF0FF340FF6B02000F03D
:100350009FFE241A40F0468500F028BD01236A461E
:1003600002A9304600F00EFE002840F03B85641ED6
:10037000F4D13096079C12AF74B1309E17F8011B70
:100380000498B0470028049000F02C850D98401C7C
:10039000641E0D90F2D130960A9C3021002C8DF80D
:1003A00000100CDD309E01236A4602A9304600F0A1
:1003B000E9FD002840F01685641EF4D13096059FB3
:1003C000089C74B1309E17F8011B0498B0470028B0
:1003D000049000F007850D98401C641E0D90F2D12A
:1003E00030960B9C3021002C8DF800100CDD309ED7
:1003F00001236A4602A9304600F0C4FD002840F0FF
:10040000F184641EF4D1309605980899099C471828
:1004100074B1309E17F8011B0498B047002804906F
:1004200000F0E0840D98401C641E0D90F2D13096CF
:100430000C9C3021002C8DF800100CDD309E012327
:100440006A4602A9304600F09DFD002840F0CA84AB
:10045000641EF4D130969DF8400041077FF584AECC
:100460002020002D8DF800007FF77EAE309C012308
:100470006A4602A9204600F085FD002840F0B284BB
:100480006D1EF4D130946FE60FF65830059000F0F1
:100490008DBC0E9D002D04D5204600F019FE0446AB
:1004A00007E02A46204600F02FFE002814BF041B58
:1004B0002C46089400F07ABCD9F8001051F8040BCF
:1004C000C9F8001020F00004002121F0FF35CDE92B
:1004D000024512AB0593782100F04DBC2B9948786A
:1004E00020B14FF0FF340FF6CC2030E79DF84200EA
:1004F000622860D0682817D06A283FD06C2806D0C0
:10050000712847D074282CD07A281DD062E0D9F801
:10051000001051F8040BC9F80010002866D14FF004
:10052000FF340FF6A82012E7D9F8001051F8040B99
:10053000C9F8001020B94FF0FF340FF6902006E7FD
:100540000D99018000F032BCD9F8001051F8040B6D
:10055000C9F80010002849D14FF0FF340FF66C2085
:10056000F5E6D9F8001051F8040BC9F8001000287E
:100570003CD14FF0FF340FF65420E8E6D9F80010D4
:1005800051F8040BC9F8001080B94FF0FF340FF692
:100590003C20DCE6D9F8001051F8040BC9F8001033
:1005A00020B94FF0FF340FF62420D0E60D9AD31770
:1005B000C0E90023FAE3D9F8001051F8040BC9F898
:1005C000001020B94FF0FF340FF60020BFE60D9960
:1005D0000170EBE3D9F8001051F8040BC9F80010D2
:1005E00020B94FF0FF340FF6E410B0E60D9901602A
:1005F000DCE39DF842004C2807BFD9F80010CA1D63
:10060000D9F80000C21D22F00702C9F80020D2E983
:1006100000010832C9F80020CDE90201C80F02D05C
:1006200007982D210AE0BDF84000810702D5079800
:100630002B2103E0C00705D50798202112AA1154E9
:10064000401C079012A807994BF0200300EB010C07
:10065000DDE90201CDE92C01612BCDF814C021ACFC
:100660000BD00E98002848BF062105D404BF4BF0DC
:100670002000672801D101210E91DDE902014F0020
:1006800047EAD0777E15FF174FF0FF32974208BF39
:10069000964210D1090341EA10510003002908BF16
:1006A000002808D0ABF1610503211A2D089118D359
:1006B0000FF6381110E0DDE902014A00521512F17F
:1006C000010F11D108030FD1ABF1610503211A2DE0
:1006D00008911FD30FF61C110322604600F040FD65
:1006E00064E30FF60411F7E7DDE902016A4600F062
:1006F0008BFDCDE902014BF02000612811D1059856
:1007000030210170821C0592BBF1610F0CBF782172
:10071000582102E00FF6D801DEE741700798801CEF
:100720000790DDE9020120F0000231F0004308BF2C
:10073000002A02D10026002542E14BF02008B8F142
:10074000610F40F092800E98002847BF212101914F
:10075000401C0190019FDDE92C017F1C0022002339
:10076000DDE9024500F088FD38BF85F000450099BD
:100770008DF88420091F002F00910DF1850632DDD0
:10078000204629460022002300F090FD2BD21C2297
:1007900000F0A6FD04460D4600F040FEFF1F002FAE
:1007A000804609DD00F056FE02460B4620462946EB
:1007B00000F020FF04460D46F01D0721B8F1000FA0
:1007C0000CDD491E5EBF08F00F0200F8012D4FEA54
:1007D0002818F3D502E0002200F8012D491EFAD5B1
:1007E000C61D002FCCDC0DF18500361A01980DF1E5
:1007F00085048642D8BF304600282FD4B04206DA9E
:100800000DF185010A5C082AA8BF0F2100DA00213A
:10081000024621AB134400E0401E13F80159521E5A
:100820008D42F9D00F2904D10DF185018B5C5B1C41
:100830008B54002A04D50099091D21AC401C00915D
:10084000411E0BD4621813783033DDB23A2DA4BFA9
:100850005B443A3B491E02F80139F4D50E99002950
:1008600040F1AC80421E0E92A8E00099DFF8042708
:1008700047F29750414391FBF2F20092DDE92C459B
:10088000C2F10702002A25F0004504DD2046294672
:1008900000F04CFB0BE052420020DFF8DC1600F0C9
:1008A00045FB02460B462046294600F015FF04464C
:1008B0000D46B8F1660F06BF009F0A3706270E984F
:1008C0003F18142FC8BF142730208DF884000DF175
:1008D0008506002F34DD2046294601F021F8014627
:1008E0000A4606F1080304200A26B2FBF6F606EBD8
:1008F000860EA2EB4E02303203F8012C0A22B6FB20
:10090000F2F202EB820EA6EB4E063036401E03F8E2
:10091000026DE9D1083F002F03F10806D9DD084632
:1009200001F010F802460B462046294600F062FE10
:100930000022DFF8483601F013F804460D46CAE7F6
:100940000DF18500361A0DF1850404E00098401E73
:10095000761E0090641C20783028F7D0B8F1660F1E
:1009600002D10098401C04E0B8F1650F0CBF0120D3
:1009700000200E9940188642B8BF701E00281DD472
:10098000B04204DA215C3429C8BF392100DC3021AF
:100990000246631E9D1800E0401E15F80169521EB4
:1009A0008E42F9D0392902D1A15C491CA154002AF8
:1009B00004D50099491C1C46401C00910646009D28
:1009C00001F0A4F8406A0778DDF8388030B20028DA
:1009D00002DC01260FF220644BF02000662808BFDD
:1009E0006D1C16D0672845D128B210F1040F47DBE3
:1009F000404545DA9DF840006D1C010703D430B234
:100A00004045D8BF804628B2B8EB000848BF4FF039
:100A100000080FFA85FBBBF1000F00F3B4800898C3
:100A2000411C0891302205990A54B8F1000F03DCEB
:100A30009DF84000010704D50898411C08910599CC
:100A40000F5418EB0B0FB8BFC8F100052DB2684268
:100A5000454432B20B909542B8BF2E46059B08988C
:100A600036B2099632462146184400F079FBAD1B98
:100A70000C95D2E0BBF1610F17D14FF0700B19E06C
:100A800030B2404504DA9DF840100A0758BF80464E
:100A9000B8F1010848BF4FF00008BBF1670F14BF61
:100AA0004FF0450B4FF0650B04E0BBF1410F08BF61
:100AB0004FF0500B0898411C0891B8F1000F0599B0
:100AC00014F8012B0A5403DC9DF8400001071AD5E5
:100AD0000898411C0891B8F1000F05990F5412DDD8
:100AE000761E30B28045B8BF46460598089B32B2A4
:100AF0002146184400F034FB089936B27118089169
:100B0000A8EB06000B9005980899084429B2002923
:100B100080F800B003D42B224270821C04E02D2206
:100B200042700D46821C6D4200212CAB28460AE023
:100B300004460A2094FBF0F000EB8005A4EB45048A
:100B400003F8014B491C00B20028F1DC012906DC46
:100B50004BF02000652804BF302002F8010B00296B
:100B60002CAB08D1302002F8010B06E0491E585C7E
:100B7000303002F8010B0029F8DC05990898084488
:100B8000121A099249E030B229B288421CDA05985B
:100B9000089B32B22146184400F0E2FA089936B2B6
:100BA00071180891ABEB0600B8F1000F0B9003DC55
:100BB0009DF84000020704D5059847540999491C3F
:100BC0000991CDF8308028E00598089B2AB221468B
:100BD000184400F0C5FA0898761B5844B8F1000F85
:100BE000089003DC9DF840100A0703D5411C0891CA
:100BF00005990F5430B28045B8BF46460598089B0A
:100C000032B204EB0B01184400F0AAFA089836B28D
:100C100030180890A8EB06000B909DF8400000F0FB
:100C20001400102840F0C280079A08980B99821887
:100C300009988A1882180C980F998018884280F2B7
:100C4000B580081A0A90B1E09DF84200622808D0E9
:100C500068280ED06A2814D06C281FD0712810D0B4
:100C60001CE0D9F8001051F8040BC9F80010C0B20C
:100C70001AE0D9F8001051F8040BC9F8001080B23E
:100C800012E0D9F80000C21D22F00702C9F80020C6
:100C9000D2E900010832C9F8002006E0D9F80010B6
:100CA00051F8040BC9F800100021CDE902019DF8AC
:100CB000400001075AD5DDE90223002B08BF002AB6
:100CC00054D04BF02000782850D1079812A9302238
:100CD0000A54401C431C079301F800B046E09DF8FD
:100CE0004200622808D068280ED06A2814D06C28E8
:100CF0001FD0712810D01CE0D9F8001051F8040B57
:100D0000C9F8001040B21AE0D9F8001051F8040BED
:100D1000C9F8001000B212E0D9F80000C21D22F09C
:100D20000702C9F80020D2E900010832C9F8002002
:100D300006E0D9F8001051F8040BC9F80010C117EB
:100D4000CDE90201002902D507982D210AE0BDF85E
:100D50004000810702D507982B2103E0C00705D585
:100D60000798202112AA1154401C079012A8079935
:100D700001440591594602A800F04EF816E0012002
:100D80000790D9F8000050F8041BC9F800008DF84E
:100D900048100BE001212522BBF1000F07918DF8CF
:100DA000482003D0022207928DF849B00F9D079981
:100DB0000A986D1A08992D1A0B986D1A09992D1A0F
:100DC0000C986D1A9DF840102D1A48073FF5D2AACD
:100DD0002021002D8DF800107FF7CCAA309E2C46E4
:100DE000FFF7BCBA4FF0FF3031B0BDE8F08F000024
:100DF000CBCCCC0C686A6C747A4C00007072696E53
:100E000074665F733A2062616420257320617267A3
:100E1000756D656E740000002DE9FC4707468A4633
:100E20003C6950466F2808BF082505D0FFF780F9B8
:100E3000782814BF0A251025D7E900013C268046F2
:100E40008946BAF1640F18BFBAF1690F05D10029BC
:100E500003D5D8F1000869EB4909B9F1000F08BFC3
:100E6000B8F1000F0CD1386B50B9082D3AD197F872
:100E70003800010736D530223B2684F83B2031E08C
:100E80008DF800A0404649462A46EB1700F042FE86
:100E90003032D0B2761E3A2801960EDAA25540467C
:100EA00049462A46EB1700F035FE80465FEA010905
:100EB00008BFB8F1000F05D108E09DF80000121836
:100EC000513AEBE7F868A1198842DBD3082D09D124
:100ED00097F83800010705D5A05D302802D0761EAE
:100EE0003020A055C6F13C03BB61A119F960386BF5
:100EF000834208DAC31A3B624FF6EF70398F014024
:100F00003987BDE8F38700280ED597F8380000F040
:100F10001400102808D17A6B7969386A521A121AAB
:100F2000D21A002AC8BF3A62BDE8F3872DE9D04340
:100F300006460F4614464FF00008DFF8449012E0D2
:100F4000E00707D542464B463046394600F008FDDB
:100F500006460F464046494642464B4600F000FDD5
:100F6000641080468946002CEAD130463946BDE8F7
:100F7000D0830000A08601000000F03F84D7974195
:100F800000002440F8B505460E4617461C460020D2
:100F90005CB117F8011BB068A847B06030B1F06AC7
:100FA000401CF0620020641EF3D1F2BD4FF0FF3010
:100FB000F2BD00007072696E74665F733A20256E30
:100FC00020646973616C6C6F776564007072696E20
:100FD00074663A2062616420256E20617267756DC7
:100FE000656E7400000000006E616E004E414E00A0
:100FF000696E6600494E46003000F0B40246106843
:1010000095681318506803EB5004C00748BF4D445F
:10101000A3422DD013F8016B16F0030004BF13F8A0
:10102000010BC01C31090F2907D113F8011B0F3127
:1010300003E013F8017B05F8017B401EF9D100297C
:10104000E6D013F8010BC6F38106032E08BF13F890
:10105000016B00EB0620404228440026B71E8F4259
:101060001EBF10F8017B05F8017B761CF6D1CFE797
:10107000F0BC02F10C007047C9B202788A421AB182
:101080001CBF10F8012FF9E718BF00207047123479
:1010900080B500B906A005490B681BB122220021CA
:1010A000984701E000F04EFE222002BD6C0E0020A9
:1010B000636F6E73747261696E742068616E646CC4
:1010C00065723A20626164206D65737361676500C3
:1010D00000F10103810704D010F8011B820781B1E0
:1010E000FAD10268A2F10131914311F0803104BFBD
:1010F00050F8042FF6E709BAB1FA81F100EBD100FC
:10110000401CC01A70470102C9B2830706D0521EA4
:1011100022D310F8013B9942F7D11FE0083A13D3CC
:1011200002F1040241EA012141EA014150F8043B85
:10113000121F21BF4B40A3F1013C2CEA030C1CF011
:10114000803FF3D0C9B2001F083210F8013B521E95
:1011500028BF91EA030FF8D818BF0120401E70473E
:1011600062B38B0708D0521E11F8013B00F8013B17
:1011700000F024808B07F6D1830740F0208000BF69
:10118000103A07D330B4B1E83810103AA0E838105C
:10119000F9D230BC530724BFB1E80810A0E808100A
:1011A00044BF51F8043B40F8043BD20724BF31F858
:1011B000022B20F8022B44BF0B7803707047121FDC
:1011C00017D35B0009D151F8043B20F8023B1B0CFC
:1011D000121F20F8023BF6D20BE051F8043B00F856
:1011E000013B1B0A20F8023B1B0C121F00F8013BBD
:1011F000F3D238BF121D521E24BF11F8013B00F874
:10120000013BF8D870472E0010B5144600F002F8E4
:10121000226010BDC1F30A5343B14A0012F5001F0A
:1012200028D2A3F2FE32A1EB0251704750EA410CE2
:1012300020D001F0004C31EA0C01B1FA81F204BF78
:10124000B0FA80F3D2180B3AB2F120032CBF00FAA7
:1012500003F1914041EA0C013EBFC2F1200C20FA9B
:101260000CF319439040524240F2FD33D21A01EB85
:10127000035170470022704741EA030C50EA4C0CBE
:1012800052EA0C0C4FF4001C09D307D01CEB410FA1
:101290009CBF1CEB430F8B4208BF824270471CEB84
:1012A000430FFBD8994208BF9042704741EA030CB4
:1012B00050EA4C0C52EA0C0C4FF4001C09D307D036
:1012C0001CEB410F9CBF1CEB430F994208BF90429F
:1012D00070471CEB410FFBD88B4208BF824270471E
:1012E000124254D440F2FF7C1CEA11530FD06345E4
:1012F00031D09B1863453CBF01EB0251704701F0B0
:10130000004141EA0C510020AFF30080704750EAE1
:10131000410320D001F0004C91EA0C011CD0B1FA3D
:1013200081F30B3B9A420DD9D21A994051EA0C0134
:10133000C3F1200C20FA0CFC61449840531C40F28D
:10134000FF7CD7E7914041EA0C01C2F1200C20FA62
:101350000CF3194390407047B0FA80F31533202BFB
:10136000E0D3202AEED3203A203B9A4209D9D21A60
:1013700000FA03F141EA0C010020531C40F2FF7C0B
:10138000B8E700FA02F141EA0C010020704752422E
:1013900040F2FF7C1CEA11530DD06345DBD0B2EB69
:1013A000030C3CBFA1EB025170470CF1010221EA92
:1013B000035141F4801150EA410CCCD001F0004CB3
:1013C000352A27DC30B481EA0C01B2F1200309DAB6
:1013D000C2F12003044601FA03F5D0402843D1406E
:1013E0009C400CE0C3F12002450020FA03F418BF32
:1013F00044F0010421FA03F091400C43002174F100
:10140000004550F1000051EB0C01244230BC7FF448
:101410007BAF70476146002076E70000C1F30A53B6
:1014200040F21E42D31A0CDDCA0283F3070342EADC
:10143000505242F00042DA4002EBE17282EAE1707F
:1014400070476FEAE17203F2E13008B182F00040C8
:101450007047000010F0004160B148BF4042B0FA50
:1014600080F29040D21CC2F5846241EA025202EB43
:10147000D02140057047000070B491EA030F4FF08F
:10148000004540F1BF806B40841A71EB030604D223
:101490006E40001BB141121973414FF4001C1CEB4C
:1014A000410F34BF7CEB430683E00C0DA4EB1356D5
:1014B000362E00F37C80012E45EAC32341DC43EA4B
:1014C000525312BFD20292025B08240545EAC121A1
:1014D00041EA5051D2EBC020994125D407D1B0FA4E
:1014E00080F610FA06F162D00020203608E0B1FA4A
:1014F00081F6B140C6F1200220FA02F21143B04059
:101500004FEAF474B4EB465434F001064FEA740425
:101510000AD8D6F50016760D04F00044F04061FAC2
:1015200006F25040F1404840C00A40EA415021F0E4
:10153000004128BF5FEA500550F1000044EBD12183
:1015400035E0DB0A45EAC121C90AB6F120050EDD06
:1015500042EA0242120CC5F1200603FA06F6EB40FD
:1015600042EA06056D42984161F100010DE062FA20
:1015700006F5F240554063FA06FC82EA0C02F3409D
:101580005A406D42904161EB030111F4801F05D177
:10159000641E620502D06D004041494121F4801172
:1015A000430875F1004350F1000041EB045170BC59
:1015B00070471CEB410F15D223F0004352EA43065B
:1015C0000BD04FEA4C0CBCEB410F04D80C0D661E3F
:1015D000342EB7DDEBE7801A994150EA410608BF87
:1015E0000021E4E708BF1CEB430F28BF6FF00001A8
:1015F000DDE7000070B491EA030F4FF000457FF57E
:1016000043AF6B40841A71EB030603D2001BB14158
:10161000121973414FF4001C1CEB410F34BF7CEBDB
:10162000430442E00C0DA4EB1356352E4FDC45EA83
:10163000C323DB0A45EAC121C912B6F120050DDD3D
:1016400063FA05F6EB4086EA0305124218BF45F03F
:101650000105C01851F100010CD213E062FA06F541
:10166000F2405540F3415A40B340F3405A4080188D
:10167000594107D349085FEA30005FEA350528BFC2
:1016800045F0010501F58011420875F1004250F165
:10169000000041EB04514E0016F5001F70BC38BF2E
:1016A00070470020090D090570471CEB410F10D24F
:1016B00052EA43060BD0BCEB410F05D80C0DAB43EF
:1016C000661E342EB6DD02E0AB438018594170BC73
:1016D000704770BC70470000F0B540F2FF7581EABA
:1016E000030C0CF0004C15EA11541DBF15EA1357FA
:1016F000AC42AF42E5E0BC41C1F31301C3F31303B5
:10170000801A994143F4801304D2641E00184941A1
:1017100080185941C90241EA5051B1FBF3F603FB6D
:101720001611A2FB0675D7EBC020A94102D2761E86
:1017300080185941C90241EA5051B1FBF3FE03FB45
:101740001E11A2FB0E75D7EBC020A94103D2AEF14A
:10175000010E80185941890241EA9051760546EA06
:101760008E2EB1FBF3F603FB1611A2FB0675D7EB29
:101770008020A94102D2761E80185941C90241EA4F
:1017800050514EEA060EB1FBF3F603FB1611A2FB15
:101790000675D7EBC020A94102D2761E80185941A8
:1017A000C90241EA5051B1FBF3F703FB1711A2FB49
:1017B0000735D3EBC020A94167F100070CBF0042F9
:1017C00047F0010766F3D5274FEA1E31B80814F534
:1017D000806412DDBD0775F1004250EB0E5051EBF5
:1017E000045111F5801F5CBF41EA0C01F0BD4CF0C3
:1017F0007F6141F0E0410020F0BDBD076D0840EA87
:101800000E5041F48011D4F10104B4F120060ADA3B
:10181000C4F120060200E04001FA06F3E14018435B
:10182000B24015430EE0342C13DCC6F1200445EA27
:1018300040056D0820FA06F2154321FA06F0A14092
:101840000D43002175F1004250F1000051EB0C01F5
:10185000F0BD00205FEA0C01F0BDCFB992185B41EA
:10186000B3FA83F704BFB2FA82F6BF190B3FB7F1A0
:1018700020062FBF02FA06F3BB40C7F1200622FA6A
:1018800006F638BF3343BA401CB1E419641E33E78F
:101890007F4231F00041B1FA81F404BFB0FA80F622
:1018A000A4190B3CB4F120062FBF00FA06F1A140A9
:1018B000C4F1200620FA06F638BF3143A0403C1B95
:1018C0001AE7AC421ABF05EA1357AF4212E050EADA
:1018D00041061CBF52EA4306BFE750EA41073046C3
:1018E00061461CBF41EA0551F0BD52EA430C08BFF6
:1018F000C143F0BD00204FF4001616EB410F98BF16
:1019000016EB430F08BF16EB410F24BFC14305E0A0
:1019100016EB430F0CBF61464CEA0551F0BD0000C9
:10192000400D40F21E4C40EAC120BCEB115C40F07F
:10193000004003D48CF30701C84070476FEAE170A0
:101940007047000050B1B0FA80F18840C91CC1F561
:101950008461090501EBD0214005704701467047BD
:1019600030B540F2FF7C1CEA11541DBF1CEA135530
:10197000644565453FE0641981EA030C6FF35F53EA
:101980000CF0004C43F48013C90241F0004141EADD
:10199000505EC5021100A5FB020200284FF00000B6
:1019A000EEFB01204FF00001E3FB052118BF42F0E0
:1019B0000102401800214941E3FB0E01A4F58064B7
:1019C0000D0302D292184041494154F1010470DDE7
:1019D000450872F1004250F1000051EB0451A1F5AD
:1019E000801102D441EA0C0130BD40F2FF7E4CEA86
:1019F0000E51002030BD0CEA1355644518BF6545F3
:101A000081EA030C0CF0004C41D050EA410E1CBF9F
:101A100052EA430E02E06146002030BD24422C44CD
:101A20001BD15FEA050EF6D0090302BF0146002074
:101A3000AEF1140EB1FA81F5AEEB050401FA05FE24
:101A40000C35C5F1200100FA05F5C8404EEA000E3C
:101A50006FF35F5343F480139CE733F00043B3FA12
:101A600083F504BFB2FA82FE75440B3D641BB5F1E9
:101A7000200E2FBF02FA0EF3AB40C5F1200E22FA62
:101A80000EFE38BF43EA0E03AA40641C7CE750EA0E
:101A9000410E14BF52EA430E6FF000014FF40015DF
:101AA00015EB430F8EBF194615EB410F9DE7B4D8D8
:101AB00030BDD4F10104B4F120050FDAC4F12005E2
:101AC000520828BF42F0010210FA05FE01FA05F59E
:101AD0007244E2BFE0402843E1400FE0352C9ADC3D
:101AE000C5F1200452EA400220FA05F218BF42F084
:101AF000010231FA05F0A1400A43002172F10042CF
:101B000050F1000051EB0C0130BD0000004870475F
:101B100020010020BBBBE1B1B2F5803F80F07E80A8
:101B2000022A1ED98C46B1FBF2F102FB11C31B0441
:101B300043EA1043B3FBF2FC02FB1C3380B240EAE1
:101B40000343B3FBF2F002FB103240EA0C400023E7
:101B50007047022A05D98446B0FBF2F002FB10C29E
:101B600070474AB105D100F0010249085FEA300030
:101B7000704700220023704700F0E8B80B00020015
:101B8000002100207047904271EB030CF6D3B3F5AF
:101B9000803F2FD2F0B5B3FA83F7B1FA81F4A7F101
:101BA0000F0E3D1B5340CEF1200602FA0EF2F34118
:101BB0005340B5F10F0746D80F3C2C444140C4F1C7
:101BC0002006A040F1414140B1FBF3F603FB1611A2
:101BD000A2FB0645001BA94102D2761E801859417E
:101BE00080EA010221FA0EF362FA0EF200215A4055
:101BF0003046F0BD30B4B1FBF3FC03FB1C11A2FB7B
:101C00000C45001BA94103D2ACF1010C80185941CD
:101C100030BC02460B46604600217047B2F1807F1F
:101C200065D3F0B5B2FA82F7B1FA81F4C7F10F06C5
:101C30003D1B22FA06F307F1110EF24120355A40FE
:101C4000B5F10F07B8D94140C4F12006A040F141D9
:101C50004140B1FBF3FC03FB1C11A2FB0C45001B34
:101C6000A94103D2BCF1010C801859410F2F12D3A6
:101C70000F3FC90341EA5041B1FBF3F603FB1611D4
:101C8000A2FB0645D4EBC030A94102D2761E8018D3
:101C9000594146EACC3C07B34140C7F12006B84061
:101CA000F1414140B1FBF3F603FB1611A2FB0645DF
:101CB000001BA94102D2761E8018594180EA010218
:101CC00021FA0EF3C7F1200462FA0EF20CFA07F0C3
:101CD0005A402CFA04F13043F0BD80EA010221FAA7
:101CE0000EF3002162FA0EF260465A40F0BD8C46B7
:101CF000B1FBF2F102FB11C31B0243EA1063B3FB19
:101D0000F2FC02FB1C331B024CEA002043EA106386
:101D1000B3FBF2FC02FB1C331B024CEA002043EA3B
:101D20001063B3FBF2FC02FB1C331B024CEA0020E5
:101D300043EA1063B3FBF2FC02FB1C324CEA0020C6
:101D400000237047012000F003B800007047000036
:101D50002021090326311820ABBEF9E70100002934
:101D600001D11F201BE000200200D2B2152A15D29B
:101D7000DFF8E0290300DBB252F8333099420BD38D
:101D80000300DBB202EBC3039B68994204D2C0B2EA
:101D900002EBC000007B02E0401CE5E7FEE7704775
:101DA00010B50400DFF8B00904600FF6850000F0FC
:101DB000FDFC002000F0B5FD012000F053FE0021E5
:101DC000002001F094F80421002000F032FF4FF6CB
:101DD000FF7100230022080000F09CFE0020DFF8C5
:101DE0007C19087010BD80B500F0F1FC032807D005
:101DF00008D3052802D005D2022004E0012002E029
:101E0000032000E0002002BD10B504002000C0B295
:101E1000012807D0002000F0FCFE0020DFF8401968
:101E200048700DE0012000F0F4FEDFF8340941783D
:101E30000278914204D001784170407800F0D3FBE1
:101E400010BD10B50400200000F0A4FE10BD2DE967
:101E5000F04104000D0016001F005FF00108200093
:101E6000C0B2FFF7D1FF2800FFF7EBFF002000F022
:101E700029FB012001F0E8F800F012FB4046C0B257
:101E8000BDE8F08138B500250120FFF7BDFF002037
:101E900000F072FD00242000C0B220280BDA0120DF
:101EA00001F0D2F801F030F810F00100A040284312
:101EB0000500641CEFE700F0F3FA280032BD2DE9BD
:101EC000F94F85B00C001700119DDDF84890139E66
:101ED000DDF85480DDF864A0DFF8880880F800A001
:101EE0003000C0B2012805D19DF85000DFF8781805
:101EF000087003E0FF20DFF8701808709DF81400E8
:101F0000002803D0012800F08280E3E0002000F0E8
:101F10009BFDDFF858B800208BF82800CBF82C7018
:101F20000B208BF834002000FFF718FF8BF83500EA
:101F300000208BF80000E800ABF8020004208BF8CA
:101F4000040018208BF8050000208BF806003000F4
:101F5000C0B2012801D1002000E001208BF8070069
:101F6000DFF8040800788BF808004046C0B201286A
:101F700003D1F2208BF8090002E001208BF8090060
:101F800000208BF80A0000F098FA9BF8280000283F
:101F900001D1002000E00120C0B2FFF735FF1BF1A6
:101FA000280000F09AFE584600F015FF02A8DFF85E
:101FB000C0170822FFF7D4F802A800F04DFC40F249
:101FC000FF1000F07FFC484680B2FFF7BBFCCDE974
:101FD00000013800FFF7B6FC02000B000020DFF81C
:101FE0009417FFF779FB0022DFF88C37FFF7B8FC76
:101FF000DDE90023FFF7B4FC0022DFF88037FFF7AC
:10200000AFFCFFF78DFCDFF87817086062E0002076
:1020100000F01AFD4846C0B200F01DFDDFF84CB7D5
:1020200001208BF828008BF83870DFF85807005D26
:102030008BF839009DF818008BF83A00002C03D17A
:102040000B2F05D00C2F03D0012C05D10C2F03D161
:1020500001208BF83B0002E000208BF83B000120C0
:102060008BF800009BF83800052803D09BF8380057
:1020700006280AD1280080B20C2803DA0C20ABF81D
:102080000C0004E0ABF80C5001E0ABF80C508BF8FE
:102090000E60DFF8D40600788BF80F008BF8108004
:1020A0009DF860008BF811009BF82800002801D1F2
:1020B000002000E00120C0B2FFF7A6FE1BF12800BF
:1020C00000F00BFE584600F086FE4FF6FF70DFF87A
:1020D000B016086007B0BDE8F08F2DE9F74F82B069
:1020E0001C00DDF83890109D119E129FDDF8548081
:1020F000DDF858A09DF80800002802D0012859D02A
:10210000B2E0DFF868B600208BF82800CBF82C90FE
:102110000B208BF834002000FFF720FE8BF83500F1
:102120000498CBF8300000208BF80000E800ABF8F2
:10213000020004208BF8040018208BF80500002012
:102140008BF806003000C0B2012801D1002000E069
:1021500001208BF807003800C0B2012803D1F2201B
:102160008BF8090002E001208BF8090001208BF8B0
:102170000A0000F0A2F99BF82800002801D10020F5
:1021800000E00120C0B2FFF73FFE1BF1280000F085
:10219000A4FD584600F01FFE6846DFF8EC15082243
:1021A000FEF7DEFF684600F057FB40F2FF1000F03C
:1021B00089FB59E0DFF8B4B501208BF828008BF8D3
:1021C0003890DFF8C005005D8BF839009DF83C00C1
:1021D0008BF83A00002C05D1B9F10B0F07D0B9F1FB
:1021E0000C0F04D0012C06D1B9F10C0F03D1012042
:1021F0008BF83B0002E000208BF83B0001208BF8BD
:1022000000009BF83800052803D09BF8380006280A
:102210000AD1280080B20C2803DA0C20ABF80C009D
:1022200004E0ABF80C5001E0ABF80C508BF80E60FA
:10223000DFF8340500788BF80F008BF810708BF8FE
:10224000118000F03AF99BF82800002801D1002005
:1022500000E00120C0B2FFF7D7FD1BF1280000F01D
:102260003CFD584600F0B7FD9DF90C0001F0BAF8AE
:10227000DFF81805C0F800A005B0BDE8F08F010038
:10228000012070472DE9F34F87B0002000909DF8A2
:102290001C00002802D001284ED0DDE0DFF8CC84FD
:1022A00098F80700002802D10026002702E0002647
:1022B000DFF8C07498F80900022803D100245FF009
:1022C000804501E000240025B8F8020098F80510C8
:1022D000C9B2C908C9B20818FFF7BCF832003B0000
:1022E000FFF7CAF806000F009DF82000FFF72AFB51
:1022F00032003B00FFF7C0F822002B00FFF7BCF8CC
:102300000022DFF87434FFF72BFB04000D00D8F82F
:102310002C00FFF717FB02000B0020002900FFF73D
:10232000DBF90022DFF85434FFF71AFB01F068F8FC
:10233000FFF7F6FA00908FE0DFF83064DFF8501412
:1023400096F839203020424301EB020096F838100D
:10235000494200EBC10050E91823CDE90223B089BE
:10236000FFF7F0FA0022DFF82C34FFF785F8DDE9FB
:102370000223FFF7F5FACDE90401B07B012801D172
:10238000142100E0002196F83B00002801D002272C
:1023900000E000279DF82000C00096F83820B0EB40
:1023A0008200327C10EB02101C30411A0800FFF74B
:1023B00051F804000D0096F83800C71BBF00380024
:1023C000FFF748F802000B0020002900FFF784F90E
:1023D00001F048F804000D0096F83A00042190FB43
:1023E000F1F201FB1200001DFFF734F822002B0070
:1023F000FFF7B6FA04000D00200029000022002398
:10240000FEF754FF02D22000290001E00020002145
:102410000022DFF86433FFF72FF882468B46DDE9B0
:10242000020152465B46FFF79BFA80468946DDE98A
:10243000040142464B46FFF71FF806000F00DFF885
:102440005803DFF8581332003B00FFF715F801F08E
:1024500035F8FFF765FA0090009809B0BDE8F08FF5
:1024600038B504000D0040F20120002300220100D5
:1024700000F050FB00F0D9FB012803D1DFF8EC029B
:10248000C57302E0DFF8E4020572DFF8E00200F055
:10249000A2FC00222900C9B2200000F0D0F931BD11
:1024A00010B5DFF8FC02047854F00404200000F0BA
:1024B0002BFA022000F0C8FD10BD80B5002000F00E
:1024C00030FA01BD10B504004FF6FF710023002261
:1024D000080000F01FFBA3480078012804D17FF01A
:1024E0007F4000F049FA02E0A00100F045FA10BD7B
:1024F00010B504004FF6FF7100230022080000F021
:1025000009FB98480078012804D17FF07F4000F053
:102510004AFA02E0A00100F046FA10BD38B5040006
:102520000D002900200000F05AFA31BD80B500F0FE
:1025300079FA01BD70B504000D001600200000F00E
:1025400029FB280040B200F04DFF00F076FA70BD84
:1025500010B5040000F0D8FC00B210BD38B504007E
:102560000D002900C9B2200080B200F0B1FE31BDDB
:1025700010B50400200080B200F0DFFE10BD70B581
:1025800004000D0016003200D2B292B229002000E1
:1025900080B200F075FE70BD70B504000D0016002D
:1025A0003200D2B292B22900200080B200F099FE2F
:1025B00070BD38B504000D002000C0B2012807D15D
:1025C00069490D7069480978C17300F004FC09E09D
:1025D0006648C179012905D163490D7009780172F6
:1025E00000F0F9FB31BD10B504005D4804700178BE
:1025F00041700120FFF708FC2000C0B201280AD179
:1026000034214FF4E86000F063FE442140F2417051
:1026100000F05EFE09E014214FF4E86000F058FE7F
:10262000242140F2417000F053FE10BD032070479A
:1026300001204A4908707047F8B5484801780129D7
:1026400040F086800021017000F08FFA04004FF600
:10265000FF7000F0E9FCE0070AD53F490868002850
:1026600006D008680068002802D008680068804723
:10267000A00720D54B4EFF226946300000F0C5F878
:10268000494F380000F06EFC334D2868002812D006
:102690002868806800280ED097F90D3097F90C2033
:1026A00097F90D00821812B29DF8001089B230001F
:1026B0002D68AD68A84760060AD527490868002834
:1026C00006D008680069002802D0086800698047C1
:1026D00020060FD52049086800280BD008688069BB
:1026E000002807D0200080B2000A10F0010009681D
:1026F00089698847A0051ED500F069F804280BD128
:1027000015490868002816D008684068002812D0CB
:102710000868406880470EE000F059F805280AD1A3
:102720000D490868002806D00868C068002802D053
:102730000868C0688047A0060AD5074908680028CD
:1027400006D00868C068002802D00868C0688047C2
:10275000F1BD000018920008580E00207E0E0020E7
:10276000740E00207D0E0020A1010020700D0020BD
:10277000EC9500080000F03F0000204000408F4032
:10278000540E002010960008F4950008500E00200A
:1027900000000020000011402B8716D9CEF7EF3F34
:1027A0001A140008C00A0020180E002010B50400FA
:1027B00000F0FDFC00F010FD002000F0B2F8012058
:1027C00000F0E1F90120DFF83018087010BDDFF8E3
:1027D00028080078704780B5FFF7F9FF002803D07C
:1027E000FFF7F5FF062803D100F0F6FC00F005FE28
:1027F00000F0ECFC01BD38B504000D002A00D2B297
:102800002100002000F0A4FD31BD7CB504000D00C6
:10281000160000208DF800006946280000F081FBBA
:1028200030002978C0B2884201D2012006E02A781F
:1028300021009DF8000000F0AEFD002076BD70B5CF
:1028400004000D0016002900C9B22000FFF7D3FFD5
:10285000300000F07AF870BD10B5040008222100A5
:102860004FF4D86000F00CFD002010BD1CB5040032
:10287000200080B2000A8DF8000020008DF80100D1
:1028800000F0D3F9002806D10222694640F2BC606C
:1028900000F0F6FCFFE713BD1CB50400200080B279
:1028A000000A8DF8000020008DF8010000F0BDF94D
:1028B000002806D10222694640F2BE6000F0E0FC2A
:1028C000FFE713BD38B50400002500F0AEF900287D
:1028D00019D14FF4D76000F030FD10F0FE00210058
:1028E00089B2090A11F00101084305002900C9B2A3
:1028F0004FF4D76000F0ECFC2100C9B240F2B9609F
:1029000000F0E6FCFFE731BD01B500F077FD0122E4
:102910006946842000F06EFC0020DFF8DC160870A9
:1029200001BD01B501226946802000F063FC9DF8DD
:102930000000002804D10120DFF8BC16087003E075
:102940000220DFF8B416087001BD1CB50400042095
:10295000DFF8A41608702000000C8DF8000020009D
:10296000000A8DF8010020008DF80200032269465C
:10297000832000F03FFC13BD1CB504000520DFF8E8
:10298000781608702000000C8DF800002000000A66
:102990008DF8010020008DF8020003226946822094
:1029A00000F028FC13BD1CB504000520DFF8481614
:1029B0000870962140F6AC0000F08AFC2000000C64
:1029C0008DF800002000000A8DF8010020008DF82D
:1029D000020003226946822000F00CFC13BD3EB5C4
:1029E00004000D002000000C8DF800002000000AFB
:1029F0008DF8010020008DF802002800000C8DF8F1
:102A000003002800000A8DF8040028008DF8050056
:102A100006226946942000F0EDFB0620DFF8D81569
:102A2000087037BD80B500220021C52000F0E2FB10
:102A30000720DFF8C415087001BD80B50022002111
:102A4000D12000F0D7FB01BD01B5012269469F20CE
:102A500000F0D0FB01BD01B501226946A02000F0C5
:102A6000C9FB01BD01B501226946962000F0C2FBF9
:102A700001BD1CB50400DFF88405844206D3E120C3
:102A80008DF80000E9208DF801002AE0DFF87005DC
:102A9000844206D3D7208DF80000D8208DF801009D
:102AA0001FE0DFF86005844206D3C1208DF80000E6
:102AB000C5208DF8010014E0DFF84C05844206D3F0
:102AC00075208DF8000081208DF8010009E0DFF805
:102AD0003C05844205D36B208DF800006F208DF8F3
:102AE000010002226946982000F084FB13BDF8B56E
:102AF00004000D0016001F008DF800408DF80150F5
:102B00008DF802608DF8037004226946952000F06C
:102B100071FBF1BDFEB504000D0016001F00200082
:102B200080B2000A8DF8000020008DF80100280016
:102B300080B2000A8DF8020028008DF803003000F2
:102B400080B2000A8DF8040030008DF805003800CE
:102B500080B2000A8DF8060038008DF807000822C0
:102B60006946082000F046FBF7BD80B502226946A1
:102B7000122000F062FB9DF800109DF8010050EA61
:102B8000012080B202BD01B5012269469D2000F0FE
:102B900031FB01BDF8B506000027DFF8744420784A
:102BA000002804D13000FFF764FF012020703000BE
:102BB000FEF7C8FE04000D000022DFF858340020A4
:102BC0005FF0804100F0A6FC02000B000020DFF85F
:102BD0004814FEF781FD02000B0020002900FEF7DB
:102BE0007BFDFEF79DFE04002000000E8DF8000026
:102BF0002000000C8DF801002000000A8DF8020072
:102C000020008DF8030004226946862000F0F2FAC5
:102C1000F1BD01B59DF80000DFF800140870012235
:102C200069468A2000F0E6FA01BDDFF8F00300787B
:102C3000704738B504000D00002000F0DBFB0128D0
:102C400025D1200040B20F2806D101230122002106
:102C50000620FFF74CFF05E001230122002104209C
:102C6000FFF745FF200040B20E2802DB0E200400D3
:102C700007E0200040B210F1030F02DA7FF00200FB
:102C80000400182140F6E70000F022FB19E00123C0
:102C9000002207210420FFF72AFF200040B2172856
:102CA00002DB1620040007E0200040B210F1030F01
:102CB00002DA7FF002000400382140F6E70000F05D
:102CC00007FB2000C0B28DF800008DF801500222F1
:102CD00069468E2000F08EFA31BD2DE9FE4F0600C8
:102CE0005FF00008082100226C46200000F058FF29
:102CF000CA4800783178884202D03078FFF789FFDF
:102D00003078002802D001284FD061E00827706891
:102D1000FEF718FE02000B000020BF49FEF7DCFCA6
:102D20000022BF4BFEF71CFEFEF7FAFD8146484627
:102D3000000C8DF8000068464946090A417080F889
:102D40000290317BC170717B01710022B14B002078
:102D50005FF0804100F0DEFB04000D00B068FEF77C
:102D6000F1FD82468B460020AB4922002B00FEF786
:102D7000B3FC02000B0050465946FEF7ADFCFEF7CF
:102D8000CFFD80464046000C8DF805004046000A05
:102D90008DF8060040468DF807003A00D2B292B294
:102DA00069468B2000F026FA13E00427307C8DF86A
:102DB00000006846717C4170B17C8170F17CC1700B
:102DC0003A00D2B292B269468B2000F013FA00E0CA
:102DD000FFE7BDE8F78F7FB5040000250921002239
:102DE0006E46300000F0DCFE8C4800782178884286
:102DF00002D02078FFF70DFF2078002802D00128AC
:102E000035D046E0607AF1280AD14FF6FF70FFF71F
:102E10002DFD48F20500FFF73FFD022005000FE001
:102E2000607AF2280AD141F60F50FFF71FFD41F2F8
:102E30002100FFF731FD0620050001E0607A050062
:102E40000926608880B2000A8DF800006846618813
:102E50004170217981706179C170A1790171E17945
:102E60004171217A8171C571A17A017212E0062641
:102E7000A08980B2000A8DF800006846A1894170DF
:102E8000A17B8170E17BC170217C0171617C41710A
:102E900000E006E03200D2B292B269468C2000F027
:102EA000A9F97FBD2DE9FC4104000D0016001F00AB
:102EB000DDF820808DF800408DF801508DF802601B
:102EC0008DF803704046000C8DF804004046000A5F
:102ED0008DF8050040468DF80600052269468820D9
:102EE00000F088F9072044490870BDE8F38138B53F
:102EF00004000D008DF800408DF801500222694653
:102F00008F2000F077F931BD1CB5002401226946FD
:102F1000152000F092F99DF800004042401040B2A8
:102F200016BD38B504000D0002226946132000F0DA
:102F300084F9FFF77AFE01280DD140F2047000F009
:102F4000FCF9C0B2C009002805D040F2027000F0C0
:102F5000F4F9207002E09DF8000020709DF8010057
:102F6000287031BDF8B5040003226946142000F032
:102F700064F9FFF75AFE20702078002802D001285B
:102F80000FD02DE09DF8000020716846417849423D
:102F90004910A17180784042401060710020A0600B
:102FA00028E09DF8000040424010207368464178B8
:102FB000802906DA4178C9B28908617394F90D1045
:102FC00006E04178B1F580718910617394F90D10B4
:102FD000807840424010A07312480068206109E0E8
:102FE00014250026270032002900380000F0D8FD03
:102FF0000F202070F1BD00007F0E002001E9A435F4
:1030000081F8A9328144E52D010B6B1B41FC541959
:10301000810E00200000394080847E41800E002017
:1030200000004040600E00201CB50400200080B26B
:10303000000A8DF8000020008DF801000222694688
:10304000022000F0D7F813BD70B5040000F0DCFDDD
:103050000500260016F1010F02D0044800788619F9
:1030600000F0D2FD401BB042FAD370BDA201002097
:1030700010B504002000C0B2002805D100221021A4
:103080001E4800F0F0FE08E02000C0B2012804D184
:1030900001221021194800F0E6FE10BD10B5040011
:1030A0002000C0B2002805D100222021144800F0E1
:1030B000DAFE08E02000C0B2012804D1012220215C
:1030C0000F4800F0D0FE10BD80B504210B4800F081
:1030D000BFFE012801D1012000E00020C0B202BDE6
:1030E00080B50121074800F0B3FE012804D1FFF7A5
:1030F0009FFA0548006E804701BD000000080140AE
:1031000000100140000C01408C85000880B500F0E3
:103110009BFF002808D000F097FF00F094FF01000B
:103120000020496D0968884701BD80B500F08CFF1B
:10313000002808D000F088FF00F085FF0100012082
:10314000496D0968884701BD80B500F07DFF002802
:1031500008D000F079FF00F076FF01000020496DF3
:103160004968884701BD80B500F06EFF002808D08F
:1031700000F06AFF00F067FF01000120496D496817
:10318000884701BD80B500F05FFF002801D1012014
:103190000CE000F059FF00F056FF406D806880475A
:1031A000002801D0012000E00020C0B202BD80B59F
:1031B0000A20FFF749FFFFF7C7FF1420FFF744FF7E
:1031C000FFF7D1FF0A20FFF73FFF01BD80B5FFF7F2
:1031D000D9FF0028FBD101BD80B5FFF797FFC020C4
:1031E00001F0ACFB002001F0A9FBFFF79EFFFFF709
:1031F000EDFF01BDF8B504000D001600FFF7EBFA76
:10320000FFF784FF2000C0B201F098FB00273800D0
:10321000310080B289B2884206D2380080B2285C80
:1032200001F08CFB7F1CF2E7FFF77FFF2000C0B2AC
:10323000842801D0FFF7CAFFF1BDF8B504000D00E6
:103240001600FFF7C8FAFFF761FF2000C0B201F0D7
:1032500075FB002001F072FB00273800310080B2BE
:1032600089B2884207D2002001F068FB390089B298
:1032700068547F1CF1E7FFF758FFFFF7A7FFF1BD88
:10328000F8B504000D001600FFF7A5FAFFF73EFFA2
:103290000D2001F053FB200080B2000AC0B201F003
:1032A0004DFB2000C0B201F049FB0027380031007F
:1032B00080B289B2884206D2380080B2285C01F020
:1032C0003DFB7F1CF2E7FFF730FFFFF77FFFF1BD0B
:1032D00013B50400012201A9200080B2FFF7D0FF3E
:1032E00013BDF8B504000D001600FFF774FAFFF7E0
:1032F0000DFF1D2001F022FB200080B2000AC0B2A9
:1033000001F01CFB2000C0B201F018FB002001F00E
:1033100015FB00273800310080B289B2884207D2FD
:10332000002001F00BFB390089B268547F1CF1E7E3
:10333000FFF7FBFEFFF74AFFF1BD1CB504000122B9
:103340006946200080B2FFF7CCFF9DF8000016BD53
:10335000F8B504000D001600FFF73DFAFFF7D6FEA2
:103360000E2001F0EBFA2000C0B201F0E7FA0027CE
:1033700038003100C9B280B289B2884206D2380022
:1033800080B2285C01F0DAFA7F1CF1E7FFF7CDFE8E
:10339000FFF71CFFF1BDF8B504000D001600FFF7A4
:1033A0001AFAFFF7B3FE1E2001F0C8FA2000C0B2DF
:1033B00001F0C4FA002001F0C1FA00273800310002
:1033C000C9B280B289B2884207D2002001F0B6FAB1
:1033D000390089B268547F1CF0E7FFF7A6FEFFF7BB
:1033E000F5FEF1BD10B504000421200040B2FFF746
:1033F00020FC10BD0100022070477047704700009C
:1034000040F2FF7C1CEA115240F2FE33D21A1CDD5E
:10341000352A26DAB2F115030CDA6FEA4C53D340A1
:103420000B3211FA02FC70F1000051EB5301002045
:10343000994370476FF00002DA4010FA03FC10EB7A
:10344000520051F100019043704750EA013301F0FE
:103450000041A0EB000022B91CBF41F07F6141F0A8
:103460004051704740F2FF7C1CEA115240F2FE339B
:10347000D21A18DD352A1FDAB2F1150309DA6FEA1C
:103480004C53D340094201D4401E59410020994376
:1034900070476FF00002DA40094202D4801851F1FF
:1034A00000019043704750EA41021CBF591C0905B6
:1034B00028BF4FF0004100207047000040F2FF7C21
:1034C0001CEA115240F2FE33D21A18DD352A20DAF6
:1034D000B2F1150309DA6FEA4C53D340094201D522
:1034E000401E59410020994370476FF00002DA40B6
:1034F000094202D5801851F100019043704750EA0B
:1035000041031CBF4FEA0C5101F1804138BF00213B
:10351000002070472DE9FC4D8AB0DDE90A4535F001
:10352000004308BF002A00F0F6820022DFF8F035E1
:10353000CDE9020101F00AFA00F0ED82DFF8E4358E
:1035400001F004FA01BFDDE90A014A00521512F147
:10355000010F02D1080300F0DE82DDE902235F00E3
:1035600047EAD2777E15FF1716F1010F00F0EC81C4
:1035700022F0000033F0004108BF00281FBF69009F
:1035800041EAD471481510F1010F00F0DD812F469A
:103590002646790041EAD6717000002904BF002850
:1035A000DDE90A6717D040F23340A0EB51503528CF
:1035B00004DB06F0000607F000470CE0202803DDDE
:1035C0002038C740874000E001D1002603E00028F2
:1035D000C4BFC6408640DA0F1BD0002D05D50020A1
:1035E0004FF00041041B61EB05053900304605D55D
:1035F00000224FF00043101A63EB01018D4208BF17
:10360000844206D0AFF300804FF0FF306FF00041EE
:10361000C3E2DDE9020101AAFDF7F6FD04460D460D
:10362000C80F08BF00223BD07B0043EAD67372006C
:1036300025F0004530463946002B08BF002A17D038
:1036400040F23442A2EB5352352A04DB06F0000666
:1036500007F000470CE0202A03DD203AD7409740CE
:1036600000E001D1002603E0002AC4BFD640964006
:10367000002905D500224FF00043101A63EB010129
:10368000002F05D500224FF00043961B63EB070780
:10369000B94208BFB04202D10021049101E00122E9
:1036A00004920198012813D120462946DFF8782496
:1036B000DFF87834FDF7E0FD0AD20122FDF710FEB5
:1036C0004FF000080026DFF8587404460D4620E04D
:1036D0000020DFF85C1422462B46FEF741F9DFF8A4
:1036E000547400223B46FDF7C7FEFDF797FEA0F19C
:1036F00020084046FDF7AEFE0022DFF83C34FEF71E
:103700002FF900223B46FDF7B7FE06460F464FEA6B
:1037100048182046294632463B46FDF76BFF824655
:103720008B4632463B4620462946FDF7A5FE02461B
:103730000B4650465946FDF7CFFFCDE90201DDE9C2
:103740000223FEF70DF982468B4620462946324673
:103750003B46FDF74FFF04460D46DFF8E003DFF878
:10376000E01352465B46FEF7FBF8DFF8D823DFF89C
:10377000D833FDF781FE52465B46FEF7F1F8DFF8DD
:10378000CC23DFF8CC33FDF777FE52465B46FEF7DD
:10379000E7F8DFF8C023DFF8C033FDF76DFE5246CF
:1037A0005B46FEF7DDF8DFF8B423DFF8B433FDF74E
:1037B00063FE52465B46FEF7D3F8DFF8A823DFF836
:1037C000A833FDF759FE52465B46FEF7C9F8DFF80D
:1037D0009C23DFF89C33FDF74FFE52465B46FEF715
:1037E000BFF822462B46FDF705FF012200928246D4
:1037F0008B460020DFF8281332463B46FDF7FAFEE1
:10380000009AFDF76DFD52465B46FDF735FEDDE99A
:103810000223FEF7A5F8C14A7A4402F540724244F9
:1038200003922B462246FDF727FE044601980D46DB
:10383000FDF710FE039ED6E90023FDF71DFE0646A8
:103840000F46DFF83003DFF8301322462B46FEF731
:1038500087F832463B46FDF70FFEDDE90A23FEF707
:103860007FF80022C54BFDF707FD64D30122C44B4E
:10387000FDF71CFD5CD9CA0F1ABF0022C14BAD4B2E
:10388000FDF7FAFDFDF7CAFD0022A54BDFF8F8A20F
:10389000DFF8F8B2CDE901238046DDE90A01CDF871
:1038A000008032463B46FEF75BF806460F46404630
:1038B000FDF7D0FD02460B4630463946FDF79AFE2D
:1038C00052465B46FEF74CF806460F46DDE90A0114
:1038D00022462B46FEF744F8044603988446D0E976
:1038E00002230D46DCE90401FDF7C6FDDDE90A23EC
:1038F000FEF736F852465B46FEF732F822462B4674
:10390000FDF7BAFD32463B46FDF7B6FDDDE9012382
:1039100001F02CF820F0000431F0004508BF002C25
:1039200009D04B005B1513F1010F06D10A0304D136
:103930000020974901E000200021049A002A00F0AD
:10394000EC8081F0004128E14FF0FF3A574508BF75
:1039500056450AD1190341EA1251100300290CBF40
:103960000028DDE9020140F0D8806F0047EAD477F3
:103970007E15FF17574508BF56450AD1290341EA6E
:103980001451200300290CBF0028DDE90A0140F092
:10399000C480012016F1010F7CD02F462646790005
:1039A00041EAD6727100002A04BF0029DDE90A67E6
:1039B00017D040F23341A1EB5251352904DB06F018
:1039C000000607F000470CE0202903DD2039CF4036
:1039D0008F4000E001D1002603E00029C4BFCE40A3
:1039E0008E40CDE900672F0008D500214FF000423E
:1039F0000E1B62EB0707CDE9086701E0CDE9084738
:103A0000DDE90067CDE90667002F05D500214FF0FD
:103A100000428E1B62EB0707CDE90467DDE904ABCA
:103A2000DDE908675F450CBF56450020DDE9066704
:103A3000790041EAD6727100002A04BF0029DDE94D
:103A4000006717D040F23441A1EB5251352904DB15
:103A500006F0000607F000470CE0202903DD2039BE
:103A6000CF408F4000E001D1002603E00029C4BF11
:103A7000CE408E4070B1DDE90401002F05D5002253
:103A80004FF00044961B64EB0707B94206BFB042F3
:103A900000200120DDE902677900491511F1010FCD
:103AA00006D1390304D1DA0F18D1EC0F14D027E076
:103AB000DDE90A677900491511F1010F12D13903C7
:103AC00010D1DDE902016A46FDF79EFBEC0F00987C
:103AD00012D100280EDC13E000201AE0EC0F14D005
:103AE00090B103E070B9EC0F0FD168B100204FF036
:103AF000004152E000200CE00028D8BF002008DD83
:103B0000002049E0D80FEEE746E010B1002021493F
:103B100043E01F4941E0002001493EE0DC4A00004B
:103B20000000F03F0000F0BFCD3B7F669EA0E63F67
:103B3000000050400000E03F0000903FF7DE29BF4A
:103B4000D8F8C23FF4B3FECC1A99C33F62CB68D910
:103B50006F46C73FC6C912DAC471CC3F4AE98A949E
:103B60002449D23FF75F97999999D93FBC5555554C
:103B70005555E53FFE822B654715F73F0000E0C035
:103B80000000E0400000E0BFEF39FAFE422EE63FC1
:103B90000000F07F0000F0FF00210CB0BDE8F08DC8
:103BA00062F30F2262F31F42401810F0030308D0A3
:103BB000C91A1FD3DB0748BF00F8012D28BF20F822
:103BC000022D130030B414461546103928BF20E9E1
:103BD0003C00FAD8490728BF20E90C0048BF40F84C
:103BE000042D890028BF20F8022D48BF00F8012DC0
:103BF00030BC7047C91818BF00F8012DCB0728BF8B
:103C000000F8012D7047000001480068704700BFB0
:103C10005C0E00202DE9F84703005FF0000E5FF016
:103C20000008086830FA0EF0002800F00F8101202B
:103C300010FA0EF00400086820400500A54240F08C
:103C400002814868002831D0012820D0022825D0E0
:103C500003283CD011281DD0122823D0DFF820C221
:103C6000604523D0DFF81CC260451FD0DFF818C2C2
:103C700060451BD0DFF814C2604517D0DFF810C2D2
:103C8000604513D0DFF80CC260450FD022E0C86851
:103C900080461FE0C868001D80461BE0C8680830E9
:103CA000804617E0C8680C30804613E0886800281A
:103CB00002D10420804609E08868012803D1082049
:103CC00080461C6102E0082080465C6102E0002022
:103CD0008046FFE7B5F5807F01D21E0000E01E1D83
:103CE000B5F5807F02D25FEA8E0702E0BEF10807D9
:103CF000BF005FF00F09D6F800C019FA07F03CEAE0
:103D0000000C18FA07F050EA0C0CC6F800C048681E
:103D1000C00040F19880DFF88001D0F800C05CF06E
:103D2000010CC0F800C0006810F00100009000987D
:103D30005A48F4465FEA9C0C50F82CC05FEA8E0AA1
:103D40001AF00C0A19FA0AF93CEA090CDFF850914A
:103D50004B4502D15FF000091FE0524A934202D165
:103D60005FF0010919E0504A934202D15FF0020965
:103D700013E04E4A934202D15FF003090DE04C4A32
:103D8000934202D15FF0040907E04A4A934202D10C
:103D90005FF0050901E05FF006095FEA8E0212F0AC
:103DA0000C0219FA02F9624659EA0202F4465FEA85
:103DB0009C0C40F82C204868C00207D53E48D0F83B
:103DC00000C055EA0C0CC0F800C006E03A48D0F834
:103DD00000C03CEA050CC0F800C04868800207D566
:103DE0003648D0F800C055EA0C0CC0F800C006E018
:103DF0003248D0F800C03CEA050CC0F800C0486862
:103E0000800307D52E48D0F800C055EA0C0CC0F846
:103E100000C006E02A48D0F800C03CEA050CC0F813
:103E200000C04868C00307D52648D0F800C055EA4E
:103E30000C0CC0F800C006E02248D0F800C03CEAF4
:103E4000050CC0F800C01EF1010EEAE6BDE8F187DE
:103E5000020090680B009BB2184201D0012000E0E4
:103E60000020C0B270471300DBB2002B03D00B0060
:103E70009BB2036103E00B009BB21B04036170471C
:103E8000000011100000121000002110000022108C
:103E900000003110000032101810024008000140EC
:103EA00000080140000C01400010014000140140D6
:103EB00000180140001C0140080401400C040140AE
:103EC00004040140000401407047006040607047F6
:103ED0005060026041600860704738B504000D0012
:103EE0002A0069682000FFF7F3FF31BD08B4F0B580
:103EF00004000D001600200000F0A5F8416D0D62D1
:103F000005A9002213003700DBB2FFB2BB420AD280
:103F10000B68091D476D94465FFA8CFC07EB8C0714
:103F2000BB62521CEEE7F0BC5DF808FB08B4F0B5CC
:103F300004000D001600200000F085F8416D81F8A6
:103F4000245005A9002213003700DBB2FFB2BB42A8
:103F50000AD20B68091D476D94465FFA8CFC6744D2
:103F600087F84830521CEEE7F0BC5DF808FB70B5EE
:103F700004000D00200000F066F80600706D2900B6
:103F8000C9B200EB8100816A200000F038F870BDF2
:103F900038B504000D00200000F055F8416D2A00EE
:103FA000D2B2114491F84810617231BD10B50400CD
:103FB000200000F048F8406D006A10BD10B5040004
:103FC000200000F040F8406D90F8240010BD38B596
:103FD00004000D00200000F036F8406DEDB200EB5B
:103FE0008500806A32BD38B504000D00200000F065
:103FF0002AF8406DEDB2284490F8480032BD38B53B
:1040000004000D00200000F023F8280000F0B6FEA8
:1040100000F022F831BD38B504000D00200000F09A
:1040200017F8280040B200F0B1FE00F015F831BDDD
:1040300010B50400200000F00BF8200000F094FE02
:1040400000F00AF810BD7047DFF8D8070068704725
:10405000DFF8D01708607047704770B504000D0096
:1040600016002000FFF7F4FF310049B2280000F0ED
:1040700094FEFFF7F1FF70BD2DE9F04104005821D7
:10408000002001F0ACFB050058260027A8463A00A6
:1040900031004046FFF784FD6C65DFF88C07DFF8E0
:1040A0008C170860DFF888172800FFF716FF280034
:1040B000BDE8F08110B504002000FFF7C9FF00F053
:1040C00000FEFFF7C9FF10BD80B5DFF86407FFF7FA
:1040D000FCFE0FF2E95000F0E6FE01BD2DE9FF41C4
:1040E00004000D0016001F00DDF830802000FFF7EF
:1040F000AFFFC4F84C80CDF808809DF82C000190EB
:104100000A9800903B00320052B22900200000F0D3
:10411000CEFEFFF7A1FFBDE8FF812DE9F041DDF8FC
:1041200018C0079FDDF820E0099E0A9D0B9C5FF0F8
:10413000330880F808804372C772A0F80CE08673D9
:104140000182C0F81220C0F817C05FF0000880F8A4
:104150001680DFF8E08688F80050002C03D0DFF8E6
:10416000CC86C8F80040BDE8F081F0B5DDF814C099
:10417000069F079E089D099C416480F848205FF0D7
:10418000330E80F824E080F825708385C0F82EC0B7
:10419000DFF8A4E68EF80060DFF898E68EF80050AD
:1041A000002C03D0DFF884E6CEF80040F0BD2DE906
:1041B000F64F83B004001D000E9E2800C0B2FE28FA
:1041C00001DB00206FE09DF80C00012804D1AA203B
:1041D000A0720120E07303E05520A0720220E0737A
:1041E0002F00FFB2163737802577390089B20020BB
:1041F00001F0F5FA8046C4F83C8084F84070A07D58
:10420000401CA075132114F1080001F007FBADF864
:104210000800BDF80800E0765FF0150914F1080AFF
:10422000C3464A4651465846FCF79AFFE07B0128B0
:1042300002D1E06B00280BD0A9465FFA89F90498F7
:10424000009018F1150A4A4600995046FCF788FF7D
:10425000791E89B2404601F0E1FAADF808005FF03E
:1042600001090DF1080A380080B24044B0F1010B99
:104270004A4651465846FCF773FFDFF8B805007808
:1042800000280FD0DFF8A40500680190A07D009001
:10429000E37BD4F81220B6F90000010009B24046D1
:1042A00001F025FB404605B0BDE8F08F3EB50400A7
:1042B0000D0084F850502800C0B2032808D0082808
:1042C0000ED0112813D0122815D0152819D029E0A6
:1042D000012084F85200DFF8640501F061FC21E060
:1042E000E06C002802D0182084F850001AE0012069
:1042F00084F8520016E0200000F033F884F85050A3
:1043000010E0E06C002802D0182084F850000194DE
:104310000FF269300090A2890023DFF8240501F034
:1043200058FCFFE737BD90F85200704770B5DFF8D2
:10433000006534682068FFF7C7FDB44201D0012052
:1043400000E00020C0B200280AD025002800FFF7B6
:104350007FFE280000F05BFFFFF77EFE2468E9E7A0
:1043600070BD10B504002000FFF772FE200000F0C1
:1043700022FFFFF771FE10BD2DE9FE4F82460C00B3
:1043800015001E009DF93070DFF8A80400780028A1
:104390000AD0DFF898040268290009B2200001F071
:1043A00042FB002800F04F81280080B2204410F822
:1043B000019C691E89B2200001F030FA494680B2A2
:1043C00089B2884240F03F81CAF82040DAF82000E4
:1043D000007D163083462078332840F034816078A1
:1043E0009AF80910884240F02E812800594680B280
:1043F00089B28842C0F02781DAF82000007D1630AB
:10440000FE2880F020811321200001F007FA804669
:104410004046DAF82010C97CC0B2884240F01381CF
:10442000DFF81404007800280DD0DAF820000089A5
:104430004FF6FF7188423FD0DAF820000089BAF8C1
:104440001010884232D1DAF82000D0F80F0010F1B5
:10445000010F09D0DAF82000D0F80F00DAF81210B6
:10446000884240F0F0802DE00A208AF85000504643
:10447000FFF7E9FD844600200190380040B200902B
:1044800033001BB2DAF82000027D521C92B2DAF837
:10449000200010F114015046DCF854C0DCF810C0C4
:1044A000E04708215046FFF701FFD2E008215046BF
:1044B000FFF7FCFE0020CDE008215046FFF7F6FE96
:1044C0000020C7E09AF80A0055283ED1DAF820000B
:1044D000C079012839D19AF80B00012840F0B28048
:1044E00017208AF85000DAF82000007D00281AD042
:1044F0005046FFF7A8FD844600200190380040B2E6
:10450000009033001BB2DAF82000027D521C92B2F8
:10451000DAF8200010F114015046DCF854C0DCF841
:1045200010C0E0478EE05046FFF78DFD8446002026
:104530000190002000900023002200215046DCF86A
:1045400054C0DCF810C0E0477CE09AF80A00AA28C2
:104550002CD1DAF82000C079022827D15046FFF785
:1045600072FD844600200190380040B20090330074
:104570001BB2DAF82000027D521C92B2DAF8200059
:1045800010F114015046DCF854C0DCF810C0E047CC
:1045900008215046FFF78AFEDAF82000C07801288B
:1045A00050D111215046FFF781FE4BE09AF80A00E6
:1045B000AA2846D1DAF82000C079012841D100208C
:1045C000A04908709E4801F050FB17208AF850005F
:1045D000DAF82000007D00281AD05046FFF733FD9E
:1045E000844600200190380040B2009033001BB296
:1045F000DAF82000027D521C92B2DAF8200010F1A5
:1046000014015046DCF854C0DCF810C0E04710E05C
:104610005046FFF718FD84460020019000200090CE
:104620000023002200215046DCF854C0DCF810C002
:10463000E047504600F010F808215046FFF736FEDC
:1046400000E000E005E008215046FFF72FFE0020C3
:1046500000E00120BDE8FE8F10B50400002084F8C2
:104660005200E16B002001F0A8F80020E06308216F
:104670002000FFF71BFE10BD00000000F8B504008D
:104680000D002E006F4F3878B17B88420ED23878FB
:10469000401C387003213000FFF708FE6A4801F023
:1046A0007FFA3978694801F07BFA05E0002038701C
:1046B00007213000FFF7FAFDF1BD0000FEB5040050
:1046C0000D0016001F0094F8500005280CD0072894
:1046D00000F087800A284ED011285AD0142879D0AB
:1046E000172800F093809BE0A07A552842D1E07A09
:1046F00001282BD1D4F8170010F1010F26D0D4F8DF
:1047000017004FF6FF71884220D015212000FFF7D7
:10471000CDFD200001F001FB2000FFF794FC406D6F
:10472000016A2000FFF76BFC2000FFF78CFC844639
:104730000020019000200090002300220021200092
:10474000DCF854C0DCF810C0E04713E02000FFF7AD
:104750007AFC844600200190002000900023002273
:1047600000212000DCF854C0DCF810C0E047200035
:10477000FFF772FF54E0099801909DF92000009026
:104780003B001BB2320092B229002000FFF7F4FD7B
:1047900046E0606C00280DD094F84800002809D04D
:1047A0002B48009094F84830626C01212000FFF7FC
:1047B000FEFC07E026480090002300220121200093
:1047C000FFF7F5FC12212000FFF770FD214801F0F2
:1047D000E7F925E02000FFF73FFF1F4801F0E0F96F
:1047E0001EE02000FFF72FFC8446002001900020EF
:1047F00000900023002200212000DCF854C0DCF8E7
:1048000010C0E0472000FFF727FF09E000200D4916
:1048100008700B4801F029FA2000FFF71DFFFFE7A1
:10482000F7BD0000400E002054950008340E002013
:104830002C0E0020770E0020A0010020A495000877
:10484000E80D0020760E002024950008CC94000886
:10485000700E0020349500084495000880B5334858
:10486000334901604FF48271416000218160002171
:10487000C16000210161002141614FF4007181613B
:104880001021C16100210162002141620021816289
:104890000A21C16201F07AFB002801D001F00CFE70
:1048A00001BD30B585B0040010220021684601F03A
:1048B00005FE20681E49884227D11E48016851F430
:1048C00080510160016811F48051049104990168DC
:1048D00051F004010160006810F004000490049895
:1048E000A02000900220019003200390124D694601
:1048F0002800FFF78FF94020009000200190012050
:10490000029069462800FFF785F905B030BD01B572
:1049100082B04FF4FA700090012301AA02A9034863
:1049200001F096FB9DF804000EBD0000400C002035
:1049300000300140181002400008014010B504008A
:104940002000C0B2FFF7E3FF10BD0000904205D188
:10495000994204D041EA030C50EA4C0C70474FF4E2
:10496000001C1CEB410F38BF894270472DE9FF4DF9
:1049700082B0DDE902235D0045EAD2756C15ED17C2
:1049800014F1010F1CD033F0004108BF002817D0EC
:10499000DDE90467790041EAD671481510F1010F8D
:1049A0000ED037F0004708BF002E09D0190010467E
:1049B00076D500244FF00045201A65EB01016FE029
:1049C0004FF0FF36B54208BFB4420AD1190341EA9D
:1049D0001251100300290CBF0028DDE9020140F04C
:1049E0002281DDE904014F0047EAD0777E15FF17E9
:1049F0004FF0FF3A574508BF564507D10D0345EA2A
:104A000010550403002D08BF002C25D131F00041C2
:104A100008BF00280ED1DDE902014A00521512F14B
:104A2000010F19D1080317D1AFF3008050466FF082
:104A30000041F8E0DDE9040465006D1515F1010F92
:104A40000DD120030BD1DDE902014A00521512F10C
:104A5000010F01D10803E7D0DDE90401E3E022F012
:104A6000000033F0004108BF002803D1DDE9040154
:104A70000E9AC4E0DDE902014A00521512F1010F5D
:104A80000AD1080308D1DDE90201DDE9042306B0FB
:104A9000BDE8F04DFCF764BF002004F00041C2E027
:104AA0000024624D002D44BF4FF0004767EB050521
:104AB000A94205DADDE90445002005F00041B2E035
:104AC0005B4D002D44BF4FF0004767EB05058D425D
:104AD0000CDC01DB844209D2AFF30080DDE9044540
:104AE000544905F00043002019439CE0DDE9020130
:104AF000514A524BFCF734FF514B01F00042134333
:104B00000022FCF7B9FCFCF789FC8046FCF7A2FC0C
:104B100004460D464FF078404A4922462B46FCF7A2
:104B20001FFFDDE90223FCF7A7FC06460F464648B7
:104B3000464922462B46FCF713FF32463B46FCF71C
:104B40009BFC0D4625F000410022414BFCF794FBF5
:104B5000044638BFDDE904014FD322462B462946DF
:104B6000FCF7FEFE06460F463A483B4932463B46B6
:104B7000FCF7F6FE394A3A4BFCF77EFC32463B46E0
:104B8000FCF7EEFE82468B463648374932463B46B6
:104B9000FCF7E6FE354A364BFCF76EFC32463B46E8
:104BA000FCF7DEFE0022264B324FFCF765FC224666
:104BB0002B46FCF7D5FE04460D4622462B465046B2
:104BC0005946FCF759FC00223B46FCF755FCCDE961
:104BD00000012246504659462B46FCF70BFD0022A9
:104BE0003B46FCF749FC02460B46DDE90001FCF7B9
:104BF00073FDDDE90423FCF7B3FE0E9A4244FCF793
:104C00006FFB0B46024633F0004108BF002806D078
:104C10005C00641514F1010F03D1180301D1AFF347
:104C200000801046194606B0BDE8F08D00C89CC053
:104C300000C89C400000F07FFE822B654715F73FBF
:104C40000000E03F422EE6BFF2E4D5BCE7E84BBEF1
:104C50000000903C112E5781A03F503F5843128CCA
:104C60008F71BC3F4BE8A541B752013F0BBDF3DA52
:104C7000E8708C3F0000F03FF8B504000D0016000E
:104C80001F00002300224FF4C0714FF4C070FDF7E5
:104C900041FF4FF47A7000FB07F0FCF753FE00224F
:104CA000DFF82839FCF718FDFCF73AFE00900023E6
:104CB0003200D2B22900C9B22000C0B2FEF7F2F829
:104CC000F1BD38B58AB0DFF808090FF291710160C3
:104CD0000FF2C57181600FF6B90141600FF6C50191
:104CE000C1600FF6D50101610FF619018161DFF88E
:104CF000E44821688847DFF8E008E168884740F623
:104D0000B830089000200790002006900020059001
:104D100001200490002003900820029001200190BF
:104D20000A2000900123002205210120E569A847FF
:104D30000120099000200890002007900020069094
:104D40000120059000200490002003900020029094
:104D5000082001900020009001230A220121012057
:104D6000A469A0470BB030BD10B50400FEF71FFAD0
:104D7000FEF732FA0020FDF7D4FD10BD10B5040097
:104D80002000DFF85018C968884710BD10B504002E
:104D9000200040B2FEF726FB10BDF0B58BB004003A
:104DA0000D00DFF838080088ADF82800DFF820682B
:104DB0000FF2A96030600FF2E160B0600FF2D170C5
:104DC00070600FF2E170F0600FF2ED7030610FF281
:104DD0003570B061DFF8FC7730003968884702220F
:104DE0000AA94FF4D860FB6C984702220DF12A0102
:104DF0004FF4D8603B6D984702220DF12A010AA8B2
:104E000001F066FB0028F7D13000396888472000A0
:104E1000F968884740F6B8300890002007900020D5
:104E200006900020059001200490002003900820A7
:104E30000290012001900A20009001230022290005
:104E400049B20120FE69B047012009900020089076
:104E5000002007900020069001200590002004907B
:104E60000020039000200290082001900020009074
:104E700001230A2201210120BE69B047DFF86067E3
:104E800001224FF400613000FEF7EDFF00224FF4E5
:104E900080613000FEF7E7FF0022290049B22000C0
:104EA000FB6B9847FEE7DFF83C17086070472DE979
:104EB000F14F8CB08B4692461E00169C179DDDF874
:104EC0006090DFF81077386B8047DFF804073968A7
:104ED00088475846F9688847002C5AD1072E09D0D0
:104EE00056D3092E20D012D30B2E37D029D30C2E17
:104EF00041D04DE00120DFF8F01608701620DFF8F1
:104F0000EC1608700A20DFF8E81608709FE0012010
:104F1000DFF8D41608701620DFF8D01608700A20C3
:104F2000DFF8CC16087092E00220DFF8BC1608709B
:104F30001720DFF8B81608700A20DFF8B4160870DA
:104F400085E00220DFF8A01608701820DFF89C1614
:104F500008700A20DFF89816087078E00220DFF861
:104F6000881608701920DFF8841608700A20DFF808
:104F7000801608706BE00220DFF86C1608701C20A9
:104F8000DFF8681608700A20DFF8641608705EE023
:104F90005DE0012C5BD0022C59D1072E09D056D3ED
:104FA000092E20D012D30B2E37D029D30C2E41D06E
:104FB0004DE00220DFF8301608701520DFF82C16BF
:104FC00008700A20DFF82816087040E00220DFF899
:104FD000181608701620DFF8141608700A20DFF87B
:104FE0001016087033E00220DFF8FC150870162058
:104FF000DFF8F81508700A20DFF8F415087026E0CD
:105000000220DFF8E41508701720DFF8E0150870BB
:105010000A20DFF8DC15087019E00220DFF8C81557
:1050200008701920DFF8C41508700A20DFF8C015D1
:1050300008700CE00320DFF8B01508701D20DFF8C1
:10504000AC1508700A20DFF8A8150870FFE7B9F161
:10505000000F36D140F6B8300890002007900020AD
:105060000690002005900120049000200390082065
:1050700002902800C0B20190009623000022514601
:1050800049B20120D7F81CC0E04701200990002058
:105090000890002007900020069001200590002035
:1050A000049000200390002002900820019000202E
:1050B00000902B00DBB2320021000120BF69B8470D
:1050C00076E0002C02D17D200B9009E0012C02D16A
:1050D000FA200B9004E0022C02D14FF4FA700B90EE
:1050E000DFF810853000FCF72DFC01F025FACDE942
:1050F00000010B98FCF726FC02000B00DDE9000123
:10510000FCF7EAFAC8E9000119F16400FCF71AFC9F
:10511000D8E90023FCF7E0FAFCF780F9ADF82800A5
:1051200040F6B8300890002007900020069000203C
:1051300005900120049000200390BDF82800029003
:105140002800C0B20190009623000022514649B2C7
:105150000120D7F81CC0E0470120099000200890EA
:105160000020079000200690012005900020049068
:1051700000200390BDF82800801E80B20290BDF888
:1051800028000190002000902B00DBB232002100AB
:105190000120BF69B8474FF4FA63DFF8540402787E
:1051A000DFF848040178DFF840040078FFF764FD79
:1051B0000DB0BDE8F08F70B504004FF4FA63DFF86E
:1051C00030040278DFF824040178DFF81C0400784A
:1051D000FFF752FD0D2084F85000DFF81C5400202A
:1051E0002870DFF8186400203070200000F00FF8FD
:1051F00028780028F9D0002028703078002805D0C1
:10520000002030700D2084F85000EEE770BD3EB5F0
:1052100004002000FEF717FF406DC068804794F837
:105220005000002800F00081012800F0FE800228D4
:1052300000F01181032828D0042865D0052864D007
:10524000072863D008286DD0092800F0D5800D28E4
:1052500000F0D3800E2800F0E68011282ED012280E
:1052600038D013284FD0152874D0162800F08A8023
:10527000172800F08880182800F09180192800F085
:10528000AE801A2800F0AC80E6E0D54D01224FF444
:1052900000612800FEF7E7FD00224FF4806128003E
:1052A000FEF7E1FDCB4D286B804794F84010E06B92
:1052B000AA6A9047042084F85000CDE000200190B5
:1052C000002000900023002200212000C54D2D6801
:1052D000A847C1E0C24D01224FF400612800FEF74B
:1052E000C2FD00224FF480612800FEF7BCFDB94DDD
:1052F000286B804794F84010E06BAA6A904713200F
:1053000084F85000A8E0A7E0A6E0A5E00020019006
:10531000002000900023002200212000B14D2D68C4
:10532000A84799E0AE4D01224FF480612800FEF7B6
:105330009AFD00224FF400612800FEF794FDA54D70
:10534000286B804740F6B830696B8847092084F89D
:10535000500081E0A24D01224FF480612800FEF749
:1053600082FD00224FF400612800FEF77CFD994D7C
:10537000286B804740F6B830696B8847162084F860
:10538000500069E068E000200190002000900023B8
:1053900000229B492000934D2D68A8475CE04FF404
:1053A000FA6393480278914801788F480078FFF7B4
:1053B00063FC8B4D01224FF480612800FEF753FD02
:1053C00000224FF400612800FEF74DFD814D286B4F
:1053D0008047A86B8047192084F850003CE03BE0F0
:1053E00086480078002803D0082084F8500002E0A6
:1053F000182084F850002FE02EE0794D01224FF460
:1054000080612800FEF72FFD00224FF40061280084
:10541000FEF729FD6F4D286B8047A86B80470E2053
:1054200084F8500018E017E016E06D4D00224FF4AC
:1054300000612800FEF717FD00224FF4806128006C
:10544000FEF711FD634D286B8047E86A8047022014
:1054500084F8500000E0FFE737BD00003EB5FEF7DE
:10546000F3FD04005B48006B804794F8500013285C
:1054700003D1142084F8500002E0052084F8500085
:105480000020019000200090002300220021200035
:10549000544D2D68A84737BD2DE9FE4F04000D007F
:1054A00016001F00FEF7D0FD81464A48006B80477A
:1054B000280080B2162803D20C2089F850001EE084
:1054C000A8461FFA88F80294DFF834A1D346424672
:1054D00002995846FBF744FE0A2089F85000002044
:1054E0000190380040B2009033001BB22A0092B203
:1054F00051464846DFF8ECC0DCF800C0E047BDE8A4
:10550000F78F00002DE9F04104003B4E0020307081
:105510003A4F00203870FEF797FD0500DFF8B480A1
:10552000D8F8300080472000C0B201280ED195F88D
:105530005000192805D11A2085F850000120387034
:1055400024E001203070012038701FE095F85000F1
:10555000192817D11A2085F8500000203870D8F883
:105560002C0080472800FEF76EFD406D4069002842
:105570000CD02800FEF767FD01002800496D49693D
:10558000884703E00120307000203870BDE8F081CA
:1055900080B51048006B8047FEF756FD082180F863
:1055A000501001BD80B50B48006B8047FEF74CFDE5
:1055B000082180F8501001BD80B50648006B804777
:1055C000FEF742FD082180F8501001BD00402F4039
:1055D000CC0D00208C8500080018DD198E10000805
:1055E000000C0140440E00207A0E00207B0E0020AB
:1055F0007C0E0020380E0020780E0020790E00204E
:10560000C009002010B4040013005A1E002B02D061
:105610002170641CF8E710BC704770B504000225C7
:105620007A4E7B482100C9B250F821202800C0B230
:10563000424300212000C0B206EB8000C068FFF7A3
:10564000E1FF01202100C9B23144087470BD10B4DB
:10565000002200236E4C0100C9B254F821108B4285
:105660000CD26A490400E4B201EB8401C96831F844
:105670001310002900D0521C5B1CEBE74FF47A7129
:105680004A43C0B254F82000B2FBF0F080B210BC24
:1056900070472DE9F04106000C005FF0000800257E
:1056A0005A4F3000C0B23844007C002803D130008B
:1056B000C0B239688847002C02D15FF0FF3042E069
:1056C00054493000C0B251F82000B4FBF0F2300071
:1056D000C0B251F82000B4FBF0F300FB13400028E7
:1056E00000D0521C4A483300DBB250F823305B1E16
:1056F000002B26D43000C0B207EB8000C06830F821
:105700001300002801D16D1C01E000200500954226
:1057100015D15FF0000C94450BD23000C0B207EBFE
:105720008000C0681CEB030E20F81E201CF1010C49
:10573000F1E7F6B251F826004343180003E05B1E80
:10574000D6E75FF0FF30BDE8F081F8B504000D004A
:105750002E492000C0B20844007C002805D120005A
:10576000C0B209688847012026E02B482200D2B247
:1057700050F8220085421ED226482200D2B250F8AC
:105780002200B5FBF0F22000C0B201EB8000C0683F
:1057900030F812600023B3420BDA2000C0B201EBF4
:1057A0008000C0689F185FF0000C20F817C05B1CD9
:1057B000F1E7002000E00220F2BD70B505000C000A
:1057C000002C0BD011482900C9B200EB810086687B
:1057D000A61B31002800C0B2FFF7B7FF70BD38B577
:1057E00004000D0029002000C0B2FFF752FF0100A5
:1057F00011F1010F01D1002006E00448E4B200EBF2
:10580000840080680918080032BD000004010020EF
:1058100004960008089600080C96000870B403006F
:1058200000200C00A4B2002C01D1C0B220E0002462
:105830002500EDB20E00ADB2B6B2B54217D280254A
:105840002A001500EDB2002D0ED0050603D540004C
:1058500090F0070000E040001D78154201D090F064
:105860000700D2B25208ECE75B1C641CE0E7C0B250
:1058700070BC704713005A1E9BB2002B02D00170FF
:10588000401CF7E770472DE9F841BDB005000C005A
:1058900016001F00002D01D0002C01D1002023E0B4
:1058A00016F00F0F01D000201EE05FF00008F0227C
:1058B00000216846FFF7DEFF6A461021380001F03C
:1058C0000EFA3000C0B200280DD06A464046C0B281
:1058D00004EB00014046C0B2284401F0D9FA18F1A7
:1058E0001008103EEDE701203EB0BDE8F0812DE943
:1058F000FC4F89B0040088461500159E002C03D08B
:10590000404600B2002801D1002089E0404600B2A4
:10591000102801DA002083E000275FF00109102140
:1059200000220DF1140A5046FEF73AF91021002228
:10593000EA465046FEF734F901208DF800009DF844
:1059400028008DF8050028008DF806002800000AC0
:105950008DF807002800000C8DF808002800000EC4
:105960008DF809009DF850008DF80A0000208DF890
:105970000B0000208DF80C0000208DF80D00330086
:10598000102205A92000FFF77EFF002801D100208A
:1059900046E0102004900DF1140AA346049A5146E3
:1059A0005846FBF7DDFB1037B8F11008404600B24F
:1059B000012834DB48468DF80F0019F10109330046
:1059C000102205A96846FFF75EFF002801D10020DC
:1059D00026E00021404600B2112801DB102001E042
:1059E000404600B20A00D2B2824214DA3A00D2B281
:1059F0000800C0B282183B00DBB20800C0B2C31876
:105A0000E35C05A88C465FFA8CFC10F80C00434060
:105A1000A354491CDEE7B8F110081037C6E701208F
:105A20000BB0BDE8F08F2DE9F04FC7B004000F00B8
:105A30001500002C03D0380000B2002801D100204E
:105A4000ABE0380000B2102801DA0020A5E0002603
:105A50005FF00108102100220DF118094846FEF7F9
:105A60009FF8102100220DF108094846FEF798F82A
:105A7000F02200210AA8FFF7FDFE0AAA1021280043
:105A800001F02DF90AAA02A9200001F034FA5FF012
:105A900010090DF1080AA3464A4651465846FBF73D
:105AA0005FFB0DF1080B9BF807008DF801009BF8D8
:105AB0000D1009029BF80C00014309029BF80B0032
:105AC000014309029BF80A00014301919DF8160069
:105AD0008DF800001022002102A8FFF7CBFE012064
